:020000021000EC
:10B000000040002061D20100A1D20100A3D20100C2
:10B010000000000000000000000000000000000030
:10B02000000000000000000000000000A5D20100A8
:10B030000000000000000000A7D20100A9D201001A
:10B04000ABD20100ABD201009DDC0100ABD201000C
:10B05000ABD201000000000099D30100ABD2010087
:10B06000ABD201006DD50100ABD20100ABD2010023
:10B07000ABD20100ABD20100ABD20100ABD20100D8
:10B08000ABD2010031D40100ABD20100ABD2010040
:10B09000ABD20100ABD20100ABD20100ABD20100B8
:10B0A000ABD20100ABD201000000000000000000A4
:10B0B0000000000000000000000000000000000090
:10B0C000054B0648033310B51B1A062B03D9044B56
:10B0D000002B00D0984710BD8C2100208C2100202F
:10B0E000000000000648074910B5091A8910CB0F67
:10B0F0005918491003D0044B002B00D0984710BDBD
:10B100008C2100208C2100200000000010B5074C8D
:10B110002378002B09D1FFF7D3FF054B002B02D07A
:10B12000044800E000BF0123237010BD8C210020E3
:10B1300000000000683D0200094B10B5002B03D051
:10B140000849094800E000BF08480368002B02D105
:10B15000FFF7C8FF10BD064B002BF9D09847F7E763
:10B160000000000090210020683D0200882100209E
:10B1700000000000164B002B00D1144B9D464022CE
:10B1800092029A1A924600218B460F461348144A9F
:10B19000121A05F058FD0F4B002B00D098470E4BAC
:10B1A000002B00D098470020002104000D000D481E
:10B1B000002802D00C4800E000BF05F0E5FC2000AC
:10B1C000290002F083FD05F0B9FCC046000008002C
:10B1D0000040002000000000000000008C21002042
:10B1E000FC23002000000000000000003BDF70474F
:10B1F0003CDF704712DF7047A0238900DB05C918C8
:10B20000E023DB0010B5C858094C0440CC50042A98
:10B210000DD8100002F002FE06030B060300CA5808
:10B22000802001E0C020CA5880020243CA5010BDED
:10B23000FFFFFCFF13B56B46DC1D2000FFF7DAFFB4
:10B240002378012B02D1FFF7D3FF05E0A023802252
:10B250000121DB00D205D15013BD13B56B46DC1DB7
:10B260002000FFF7C7FF2378012B03D10020FFF751
:10B27000BDFF03E080230122DB059A6713BD13B5F0
:10B280006B46DC1D2000FFF7B5FF2078012802D1B6
:10B29000FFF7ACFF03E080230122DB05DA6713BD73
:10B2A00010B5040002290BD0032911D0012916D1B1
:10B2B0000B490C4802F062FA2000FFF7BBFF0EE0DA
:10B2C0000949084802F05AFA2000FFF7D8FF06E0C3
:10B2D0000649044802F052FA2000FFF7BEFF10BDF5
:10B2E0009835020088230020A2350200AC35020008
:10B2F0000022034B1A60034B01321A707047C0469C
:10B30000342300203C230020F0B53A4B85B01A7856
:10B31000002A01D101321A70374B384D196828685C
:10B3200002F0BEFF041C02F05DF803F0C7FC011C34
:10B33000201C02F043FF00285AD002F053F803F01B
:10B34000BDFC2F4C28602F49200002F017FA2E492F
:10B35000200002F001FA28682C4903F017F905F0E3
:10B36000B9FA0B00022102000091200002F012FB4A
:10B370002749200002F002FA022002F069F8254F66
:10B3800025493860200002F0E7F90A2239682000D8
:10B3900002F04DFA214E300000F040FB0A2202A9D3
:10B3A000386805F02EFC02A9300000F040FB3000A8
:10B3B00000F072FB1A49200002F0CEF902F012F8F8
:10B3C00003F07CFC296803F0ABFA05F083FA0B006C
:10B3D000022102000091200002F0DCFA1149200055
:10B3E00002F0BAF9104B0A221968200002F01BFA89
:10B3F00005B0F0BD89200020282300204023002034
:10B4000088230020943A0200BD35020000007A44EF
:10B41000C435020044230020C7350200AC210020BF
:10B42000D6350200E235020038230020FA200D4B09
:10B4300010B51968800002F085FD03F0F7FB0A4B98
:10B440000A4C1860FF2320001A00190000F098FC35
:10B45000074A0849200005F03BFB0749074800F070
:10B460005CFD10BD8420002028230020AC2100209A
:10B4700080200020E5BC0100ED3502002C230020D7
:10B48000F8B5264C02212000FFF70AFFE121244DE8
:10B490004902280002F089FA224E3378002B03D0AB
:10B4A0002149280002F058F9322001F0B3FF0021B1
:10B4B000122002F0A1F804221C49122001F0F6FE2D
:10B4C000042220001221FFF797FE194C1949200091
:10B4D00000F0ADFA1849200000F043FC174F380087
:10B4E00000F071F80100200000F09EFA14492000DD
:10B4F00000F03CFC3900200000F0EFFB200000F0E1
:10B50000CBFA3378002B03D00E49280002F036F92D
:10B51000FA20400001F07EFFF8BDC046A8210020BF
:10B520008823002088200020F2350200F1B20100BB
:10B53000AC210020FC350200013602002C23002043
:10B54000FFFF00000B36020070B5002504AC247824
:10B550000573A94205D10A4B0A4A23210A4805F07E
:10B56000BFFA01600949920052589B0002715B5872
:10B570008371A3005B58856043710223C37170BD62
:10B58000623602002536020070360200943802004E
:10B5900007B58022074BD2051A60022100221971DB
:10B5A0009A600549009215231E320448FFF7CCFF2C
:10B5B00007BDC0464823002000300040542300202F
:10B5C000016082807047006870478088704729DF7B
:10B5D000704728DF7047036818680130431E9841A0
:10B5E000C0B2704780235B0510B51969006802F08E
:10B5F0001FFC04002000FFF7ECFF1128FAD010BD5B
:10B6000070B51C0005000E00FFF7ECFFA408220037
:10B6100031002868FFF7DBFF1128F8D070BD002249
:10B6200010B500689A4203D284588C500432F9E76E
:10B6300010BD10B50430062205F0FCFA10BD10B59F
:10B6400004300622002105F0FEFA10BD10B50400FA
:10B650000160FFF7F4FF200010BD807A7047C068DA
:10B660007047007C704700207047C368585C704783
:10B6700070B50D00110002680400D6691A00B047C9
:10B680000123A374A369002B02D02100280098474E
:10B6900070BD70B5040008000D0006F045F9236880
:10B6A000C2B22900DB692000984770BD054B10B578
:10B6B000083304000360C068002801D005F0B0FA28
:10B6C000200010BDA836020010B50400FFF7EEFF01
:10B6D000200002F00FFB200010BD10B50400807A9E
:10B6E000031C904200D9131CDAB22374E06805F001
:10B6F000A1FA63690120002B04D01A6821001268A6
:10B700001800904710BD0000F8B51D000400170098
:10B710000430104A00F074F80F4B083323602B1CE0
:10B72000142D00D9142300212000A372E16021749C
:10B730006774A174E17461610C221830DEB205F007
:10B7400082FA002D03D0300005F060FAE06020009E
:10B75000F8BDC04603280000A8360200407C7047B0
:10B76000C07C704710B5C274531E9A4102239A1AC6
:10B7700006329A4013580C00002B02D00100200022
:10B78000984710BD4161704770477047704700206F
:10B7900070477047704700207047002070470020B6
:10B7A000704700207047002070470020704700203D
:10B7B000704700207047002070470020704700202D
:10B7C000704700207047704770477047704710B54A
:10B7D000040002F08FFA200010BD0000064B012289
:10B7E000083303606423838000238272C380038153
:10B7F000C36003617047C046D836020001617047DC
:10B8000010B50400FFF7DCFE024A20001378013374
:10B81000137010BD68230020014B18787047C04694
:10B820006823002010B5C06803681B6A984710BDE4
:10B8300008B4024B9C46043808BC604725B8010098
:10B8400010B5C06803685B6A984710BD08B4024B26
:10B850009C46043808BC604741B8010010B5C06878
:10B8600003689B6A984710BD08B4024B9C46043895
:10B8700008BC60475DB8010010B5C0680368DB6AAA
:10B88000984710BD08B4024B9C46043808BC60477A
:10B8900079B8010010B5C06803681B6B984710BDEC
:10B8A00008B4024B9C46083808BC604795B80100B4
:10B8B00010B5C06803685B6B984710BD08B4024BB5
:10B8C0009C46083808BC6047B1B8010010B5C06894
:10B8D00003689B6B984710BD08B4024B9C46083820
:10B8E00008BC6047CDB8010010B5C0680468E46BBF
:10B8F000A04710BD08B4024B9C46083808BC6047FE
:10B90000E9B8010010B5C06803681B6C984710BD0A
:10B9100008B4024B9C46083808BC604705B90100D2
:10B9200010B5C06803685B6C984710BD08B4024B43
:10B930009C46083808BC604721B9010010B5C068B2
:10B9400003689B6C984710BD08B4024B9C460838AE
:10B9500008BC60473DB9010010B5C0680368DB6CE6
:10B96000984710BD08B4024B9C46083808BC604795
:10B9700059B901000300FC339B6F10B5002B02D0B6
:10B980006130FF30984710BD0300FC33DB6F10B50A
:10B99000002B02D06130FF30984710BD010010002D
:10B9A00010B504681A00613102AB1B78FF31646A7C
:10B9B000A04710BD7047704770B5050004006135A1
:10B9C000FF3511002800FC34FFF733FE236F002BF6
:10B9D00001D02800984770BD0300FC3361305B6FD5
:10B9E000FF3010B50400002B00D098472000FFF76F
:10B9F00026FE10BD010010B561311000FF311A00A4
:10BA0000FFF7B0FE10BD010010B5100061311A0043
:10BA100002AB1B78FF3100F063FA10BD10B5C068AF
:10BA200003681B69984710BD8C30016070479C30DB
:10BA30000160704770B50600A836336804000D0039
:10BA4000002B05D100F022FA800005F0DFF830600D
:10BA50002000AC30037832689B009D50037801339E
:10BA6000037070BD10B50400FFF7D6FE800005F02E
:10BA7000CDF82300A0331860103303600C3343600B
:10BA800024338360631CFF33C3600C3303610523DD
:10BA9000A434237010BD000030210023F0B5AFB0F6
:10BAA00002AA521813700300903319680400002989
:10BAB0001DD008A800F039FA08A800F067FA0223A0
:10BAC00083429B415B4216AA1433050010705370E9
:10BAD00008A800F059FA1A260100522002AB2A00E9
:10BAE000761BC01805F0A6F8F6B2012501E01C2669
:10BAF0000D0023008C331968002924D008A800F019
:10BB000014FA08A800F042FA431C0700B3421ADAFC
:10BB10001F231A006A4316A817540622022F00D8C2
:10BB2000043A6B43C3185A7008A8079300F02CFA24
:10BB3000079B01003A00981C05F07CF8023E013595
:10BB4000F61BEDB2F6B2230094331968002915D024
:10BB50001A79002A12D0022E10D9531CB34201DBED
:10BB6000023EF2B21F20684316ABC2541818FF23DE
:10BB70004370023005F05EF80135EDB223009C33CE
:10BB80001E68002E22D0300005F0CEFEC0B21D2867
:10BB900004D8302202AB9B18187004E030211D231A
:10BBA00002AA52181370302202AB9B181A7809238C
:10BBB0008242804131214042181A02AB5B18187052
:10BBC000322002AB3100C01805F034F82700A0374E
:10BBD0003B68002B02D12000FFF744FF00230793AE
:10BBE0002300A4331B78079A9A4201DB00271EE04A
:10BBF000079B3A689B009E583000FFF7E6FC2C4BF1
:10BC0000984205D1301E00D0301F211DFFF7BAFD2C
:10BC1000079B0133E3E72300A8331B68BA00D6581B
:10BC20003000FFF7D2FC224B984206D001372300A8
:10BC3000AC331B789F42EEDB07E0301E00D0301F94
:10BC40002100083100F05FF9F0E7002B0BD0210054
:10BC50002D31FF312000FFF7EDFE21003931FF319A
:10BC60002000FFF7E7FE3022210002AB9B18AC3129
:10BC70001B780978E0685A1E9341026804912100FC
:10BC8000A8310968DBB203912100A431097802913F
:10BC90002100A031096801910EA900919668290040
:10BCA00016AAB047E06803681B6D98472FB0F0BD37
:10BCB0000328000070B50600A036336804000D00AC
:10BCC000002B01D1FFF7CEFEA434237832689B000D
:10BCD0009D5023780133237070BD10B5FFF7EAFF44
:10BCE00010BD0000194B10B51A00083202601A008E
:10BCF00004008833703283604260FFF78FFE2300B8
:10BD0000A8331868002801D004F08AFF2300A0336C
:10BD10001868002801D004F083FF20003530FF3080
:10BD200000F0BAF820000930FF30FFF7BFFC200018
:10BD3000DC30FFF7BBFC2000B830FFF7B7FC200079
:10BD4000103000F01DFE200010BDC046603702001C
:10BD500010B50400FFF7C6FF200001F0CBFF200064
:10BD600010BD10B5B830FFF794FC10BD07B56B4699
:10BD7000D9800633DC3002221900FFF7AEFC07BD84
:10BD8000354BF7B51A00083202601A008833836019
:10BD9000030004007032103342601800009301F079
:10BDA00039FA2300002520008C335D609D601D73EF
:10BDB0001D615D611D76DD611D6004331D772749BE
:10BDC000B03000F0AAF82300B83301930222132305
:10BDD00023490198FFF798FC022320001A0021490B
:10BDE000DC30FFF791FC204F601C3900FF3000F081
:10BDF00094F820001D4E0930042331002022FF302A
:10BE0000FFF782FC20002D303900FF3000F07DF874
:10BE10002000353031002022FF3000F045F82000AE
:10BE200061302100FF30FFF711FC2000009B6D30D6
:10BE3000E36010222900FF3004F005FF0C4901984F
:10BE4000FFF727FC29002000FFF790FFE0682100A2
:10BE5000FFF7D4FC2000FEBD603702003C37020033
:10BE600041370200463702004B37020050370200CC
:10BE70005537020010B50400FFF7A2FB024A20006C
:10BE800013780133137010BD69230020014B18781B
:10BE90007047C04669230020704710B5040001F0C8
:10BEA00029FF200010BD000070B50400150004300B
:10BEB000094AFFF7DFFF00212000084BA572083375
:10BEC0002360E31CE1720422D9772830616204F018
:10BED000BAFE200070BDC0460328000008380200EA
:10BEE00070B50400C3720D000C3011001A0004F08C
:10BEF000A1FE0122E31CDA77A36A002B02D0210005
:10BF00002800984770BD41627047A02210B5040018
:10BF10009201FFF7AFFF200010BDA02210B5040072
:10BF20009201FFF76DFC200010BDF0B50023050065
:10BF300085B003AE2960037508000F00337073707D
:10BF4000B37005F0F1FC441E002C1ADB2B7D01932D
:10BF50000F2B16D83A5D2D2A01D101340FE03B1981
:10BF6000013B1B787270002110223000337005F005
:10BF700067FD019BEB1818712B7D01332B75023C7B
:10BF8000E2E7280005B0F0BD04307047007D70473F
:10BF900071DF704772DF704773DF704775DF70477E
:10BFA00076DF704777DF704778DF70477ADF70475A
:10BFB0007CDF70477EDF70477FDF704786DF70472A
:10BFC00090DF704792DF704796DF704798DF7047C9
:10BFD00099DF7047A0DF7047A2DF7047A3DF70478B
:10BFE000A4DF7047A6DF7047A9DF704760DF7047A6
:10BFF00061DF704762DF704763DF704753DF704770
:10C0000010DF704711DF704760300078431E9841A1
:10C01000C0B2704703000200002030B571331C78B5
:10C02000A04213DA556F0301EB181D688D420BD146
:10C030000020D98981420AD01B7B9B0707D5783223
:10C0400013780130584002E00130E9E7002030BDAC
:10C050000300002270B571331C78A24219DA456FD3
:10C060001301EB181D688D4211D10022D98991422C
:10C0700010D01B7B9B070DD50300012478331C7067
:10C08000808FFFF7A1FF42424241D2B202E001326B
:10C09000E3E70022100070BD02000300002030B56D
:10C0A00071321478A0421BDA5D6F0201AA1815687C
:10C0B0008D4213D10020D189814212D0127B110709
:10C0C00004D578331B78013058400AE0520708D570
:10C0D00060331878431E9841C0B202E00130E1E7B6
:10C0E000002030BDF0B587B00500019371300678AF
:10C0F0000020B0422FDA6F6F04013C1927688F428D
:10C1000027D10020E689864226D0217B0C242142BB
:10C1100022D02F0060373C7884421DD002230907CB
:10C12000C90F5B1A03A90B706B469B888A60CB8092
:10C130002B0001227833013C1A7048704E808880B1
:10C140003C70A88FFFF742FF030058425841C0B22D
:10C1500002E00130CDE7002007B0F0BD030000226F
:10C1600030B571331C78A24212DA456F1301EB1817
:10C170001D688D420AD10020DA89824209D0187BDD
:10C1800030231840431E9841C0B202E00132EAE772
:10C19000002030BD7FB503000200002071331C7801
:10C1A000A0422ADA556F0301EB181D688D4222D197
:10C1B0000020DC89844221D030211B7B0B421DD022
:10C1C00002266946DB06DB0F8D19F31A01A92B80C5
:10C1D0004870012388801000E41878300B700370D9
:10C1E0004C80CE808D60908FFFF7F0FE03005842A8
:10C1F0005841C0B202E00130D2E7002004B070BD67
:10C2000010B503681B6C984710BD0300002230B5C1
:10C2100071330400187885B0824227DA656F130104
:10C22000EB181D688D421FD10020DA8982421ED092
:10C23000197B302319421AD06B4658809D1C01236C
:10C2400001A9D2184A800222CA80220078320B70DB
:10C250001370487088808D60A08FFFF7B7FE0300D1
:10C2600058425841C0B202E00132D5E7002005B083
:10C2700030BD0B0010B5273314DB0B001D3313DB6F
:10C280000B00133312DB0B000F3311DB0B000B33EE
:10C2900010DBCB1D10DBCB1C10DBCB17581AC00FEB
:10C2A00080000DE028200AE01E2008E0142006E0AF
:10C2B000102004E00C2002E0082000E004204042AE
:10C2C00040B2FFF76FFE43425841C0B210BD10B5F7
:10C2D0001321808FFFF764FE10BD13B5040068467C
:10C2E000FFF756FE2069002805D06A460368013230
:10C2F000DB692100984713BD002337B5040001A86E
:10C300000193FFF77BFE019804F06AFA0022074BC5
:10C3100003F062FC04F032FB021C2069002803D009
:10C3200001680D6A2100A84737BDC0460000D03F14
:10C33000704710B5040086B018220021684604F04A
:10C3400082FC0023A27A9A4206D1230034331B7860
:10C350005A1E93410322D31A6A461370A0880A21F9
:10C36000000101F0EFFD6B4618826846FFF714FEEE
:10C3700006B010BD0300F0B561330C001A7805005B
:10C380000023142191B0934262DA0E005E43686E7E
:10C3900086193068A04209D12000FFF7DFF9012398
:10C3A000184255D07368002B02D151E00133EAE7FF
:10C3B0002F00290033373B7814311A0008A8019365
:10C3C00004F038FC236820001B699847019B043067
:10C3D0001818C3B201931F2B3AD87068FFF7F3F80F
:10C3E000010002A8FFF7A1FD236820001B693E7829
:10C3F0009847182202AB9B18033098553E7808AB3B
:10C400009B19023A02A85A70FFF7BEFD023608AB2C
:10C4100001000222981904F00DFC3E7808AB0436A6
:10C420009E1923682000DB689847236807001B6972
:10C430002000984739000200300004F0FBFB002385
:10C4400001991A0008A8FFF7A5FDAC63012000E0E0
:10C45000002011B0F0BD0A21F0B5D9B004ABC91865
:10C460008E2311AE5B00040030000B80FFF7C0FD8F
:10C47000011E00D067E23388302B00D149E111D88A
:10C48000112B5BD004D8012B21D0102B25D05AE2E0
:10C49000142B00D1CEE0192B00D1DAE0132B00D001
:10C4A00051E2A3E0382B00D1FFE106D8322B00D1B6
:10C4B0007EE1362B00D1DEE145E2502B00D1DBE0FE
:10C4C000522B00D11FE1392B00D03CE211E2603445
:10C4D0002278337AD318237035E2B08809ADA0876B
:10C4E0002900FFF787FD23002A7860331A7020693E
:10C4F000002806D03D22036804A952181B682100B9
:10C500009847E288052A0FD9C821238909018B425F
:10C510000AD86B800023AB809133FF332A80EB80F5
:10C52000A08F2900FFF73AFD230068331B78002B0A
:10C5300000D108E2A08F002201211CE101235B420F
:10C54000A3872300050060331870230061331B7834
:10C550009D4218DA142600276E43636E9E193774C5
:10C5600077743068FFF7FCF8B8420AD02069B84207
:10C5700007D0036832685B6921009C463B00664631
:10C58000B0470135E1E72069002803D003682100A6
:10C590005B68984700250C26230068331B789D4272
:10C5A00004DB00232500180071350AE030006843E1
:10C5B000E36E042218180830002104F044FB013512
:10C5C000EAE72A78934208DA616F1A01891808733A
:10C5D000616F01338A18D081F3E72300002278339A
:10C5E0001A70236820009B699847ACE1E068002836
:10C5F00000D1A2E1FEF7EFFF002800D09DE107ADDA
:10C6000005220021280004F01EFB01233022EB70DC
:10C6100013432B70072300216B700933AB70E36D5C
:10C620000D9109930E910F910A910B91A08F09AB77
:10C630002A0086E1E56D338A6A8AA08F9A4203D187
:10C640000B000A00290001E00B000A00FFF7B6FC0E
:10C6500079E1327A002A00D075E1E068002804D040
:10C6600021001C234031FEF7CBFF2069002800D1B8
:10C6700069E103689B68FBE00500F38803932300EE
:10C6800061331B789D4200DB5DE114276F43636ECD
:10C69000039ADF193B8993420CD12069002800D10D
:10C6A00051E1327C036800921D69462304AA9B185D
:10C6B0003A683DE1BB89039A934222D1F37CB27C74
:10C6C0001B021343012299B213403B7401234A0811
:10C6D0001A4002330B407A745A1E93413868DBB219
:10C6E0000493FFF73DF8049B98420AD02069002884
:10C6F00000D128E103683A685D692100049BA847DE
:10C7000021E10135BBE7A08F0B000A00FFF76CFCAD
:10C7100019E1F588002D31D14227B389039304AB89
:10C72000FF18039B9D421EDA230068331A7800230A
:10C73000934215DA0C205843E16E0818B9788C46FC
:10C7400081798C450AD139888C4681888C4505D100
:10C75000391D0422083004F06DFA01E00133E7E7E7
:10C7600001350837DDE70022039BA08FDB00F618B8
:10C77000B189013189B2FFF723FCE4E02300050011
:10C780000C2168331A78954200DBDCE00B006B4328
:10C79000E06EC3181889002808D05889002805D0F1
:10C7A0002200083370321570190057E00135EAE7AE
:10C7B0002000F3887030002B3DD10C2142220378F9
:10C7C000E76E4B43FB189B68099304ABD2180A230E
:10C7D000B58905916B430E33F3180393230071332E
:10C7E0000493039B9A4221D00025049B1B789D4211
:10C7F00017DA666F2B01F318059906784E435968CE
:10C80000F6598E420BD191789E7AB14207D11188A8
:10C810001E89B14203D116791E731689DE81013556
:10C82000E3E7158909AB1D800A32DAE7A08F09A971
:10C83000FFF7C8FB87E0230068331D780C230278DC
:10C8400001325343AA420EDAE16EC9180E89002E56
:10C8500006D04E89002E03D002700831A08FE7E782
:10C8600001320C33EEE7206900286CD00368DB68E6
:10C870002100984767E02300783318700623F28878
:10C88000FF339A4202D1E368002B19D123007133A0
:10C8900018780023B189834255DA656F1A01AA1806
:10C8A000D5898D4239D00133F5E7230078331870EC
:10C8B0000623F288FF339A4245D1E368002B42D029
:10C8C00009AD0522280004F0BEF90121EA782B7891
:10C8D0000A43EA7070220B439343403A13432B7090
:10C8E00007236B700933AB70A08F2900FFF762FB41
:10C8F00029E0B37BB589022B03D1A08F2900FFF774
:10C9000067FB23007133197800238B421BDA606FB9
:10C910001A018218D089A8420DD12069002812D0AE
:10C92000317C036800919D69462304A912685B1855
:10C930002100A84707E00133E7E7002385211A001B
:10C94000A08FFFF739FB59B0F0BD10B50400FFF719
:10C9500059FB606F002801D004F062F9E06E0028F6
:10C9600001D004F05DF9606E002801D004F058F9A0
:10C9700022000023613271341370D371237010BD13
:10C9800010B50400044B08330360FFF7DEFF2000FE
:10C99000FEF71CFF200010BD1C38020010B504007B
:10C9A000FFF7EEFF200001F0A5F9200010BD000008
:10C9B00013B56C4612886180228001006A460248E5
:10C9C0000193FFF70DFB16BDFFFF0000F0B5F3B0BC
:10C9D00002937AAB1B78070007937CAB1B7801911D
:10C9E0001400D14904220EA8099304F023F9002170
:10C9F0000EA8FFF705FB13ADCC4B14220021280035
:10CA000001260F9304F01FF90A230FA928002B8099
:10CA10002E732E72FFF7EAFA2823002511A803804F
:10CA2000DB1843804133FF33C3808580FFF7BEFAB4
:10CA30002800FFF7B7FA02233B750433BB753B00B0
:10CA4000032233337E751A70019BAB421FD0AC4278
:10CA50001DD01F23019A5343E618B44217D03D005E
:10CA60003335287823783A18013313756378023008
:10CA7000C0B25375287038182278A11C143004F005
:10CA8000D9F823782A781F34D3182B70E5E70023D0
:10CA9000029A9A4221D0789A9A421ED01F261500F7
:10CAA000029A5643AA190192019AAA4215D02E78E9
:10CAB0002AA8721CC2546978C2180233DCB25170C1
:10CAC0000019A91C320004F0B5F83A00012134190C
:10CAD0003432E3B211701F35E6E73A0038003332E2
:10CAE000117814302AAAFFF755FA0020FFF75CFAF4
:10CAF0000024079B9C420EDA799AA300D058FEF7D7
:10CB000064FD8B4B984204D13A00613213780133B3
:10CB100013700134EDE73B00613318780338C0B27D
:10CB200018701423584304F071F800230BAA1380E3
:10CB3000799A78660292019308930493019B079A6D
:10CB4000934200DB11E2029B1D682800FEF73BFDCB
:10CB500001001DA8FFF7E9F91DA8FFF715FA040069
:10CB60001DA8FFF713FA022808D1637821781B0269
:10CB700010AA0B4313800123937014E032AE1022ED
:10CB80002100300004F056F8637B227B1B02134324
:10CB900010AA138000231A21737333730AABC918C8
:10CBA0003000FFF729FA2800FEF70FFDA0239B01B4
:10CBB000984212D12800FEF706FD5E4904F0AAFE55
:10CBC000002800D1CAE12800FEF7FDFC5A4904F014
:10CBD000A1FE002800D1C1E182E22800FEF7F5FCA9
:10CBE000534B984200D048E12C1E00D02C1F251D2D
:10CBF0002800FEF7E8FC514904F08CFE002813D110
:10CC00000122102332AD13432B7023682000DB6810
:10CC10009847236806001B6920009847310082B2BC
:10CC20002800FFF7C5F999E12800FEF7CCFC44493C
:10CC300004F070FE002807D123682000DB689847C5
:10CC40000088FFF7B1F989E12800FEF7BCFC3D49F7
:10CC500004F060FE002800D180E12000FEF77EFD98
:10CC6000236803901B69200098470AABD8801423DF
:10CC70000026049A31005A437B6E05929B18089A4D
:10CC80001C605A601E745E741C2223A803F0DBFF34
:10CC900001226421039B93430AAA52181370302384
:10CCA000039A1A4213D00CAD03223100280003F07E
:10CCB000CAFF102301221A432A70012213436B700A
:10CCC000AB7805329343043A1343AB7028950DAD0E
:10CCD00003220021280003F0B6FF3223039A1A42F0
:10CCE00012D0FA68233B002A06D001212A789A4301
:10CCF0000A431340202205E001212A789A430A437F
:10CD00001340102213432B700C23039A1A4223D092
:10CD1000FA6803330DA9002A16D001204A789A43F5
:10CD200002431340202215E0183802008020002022
:10CD3000032800003C3702004B3702004137020055
:10CD4000463702005037020001204A789A430243D6
:10CD50001340102213434B7006220DADAB78200018
:10CD60009343043A1343AB7023689B6998470121AE
:10CD70000122AB7882438B431343AB70019B5B185A
:10CD80000393029B0693079A039B934238DA069B10
:10CD90005E683000FEF719FCA4239B0198422FD156
:10CDA000351E00D0351F2E1D3000FEF70CFCD34978
:10CDB00004F0B0FD002810D12B6828009B6898472C
:10CDC00024902B682800DB6898472B6823AE3081BD
:10CDD000DB682800984770810CE03000FEF7F3FB19
:10CDE000C74904F097FD002804D12B6828009B68F0
:10CDF00098472690039B01330393069B0433C1E7B6
:10CE000018AE14220021300003F01DFF10AB189360
:10CE10000DAB73600AABDB882000338123680025EB
:10CE20009B689847059A7B6EB0819B180833320047
:10CE300023A928003561FFF7CFF80AABDB88AB42A6
:10CE400016D00AAB9A1D13889D4208DA2368290080
:10CE50005B692000984732ABE8540135F1E7796E01
:10CE6000059B8C4663441889002132ABFFF7A0FD77
:10CE7000049B0133DBB2049370E02800FEF7A5FBAE
:10CE8000A4239B01984269D12C1E00D02C1F251D84
:10CE90002800FEF798FB994904F03CFD00285DD07E
:10CEA0002800FEF790FB974904F034FD002855D088
:10CEB0002800FEF788FB944904F02CFD00284DD093
:10CEC0002800FEF780FB8E4904F024FD002845D0A1
:10CED00023682000DB6898470DAE18AD308014221F
:10CEE000002123A803F0AFFE03220021280003F055
:10CEF000AAFE0223AB7023682000DB6898473288C3
:10CF000080B2801A03000121581E8341A87888430B
:10CF10001843A870F8680E312B78002800D1E6E09D
:10CF200001208B4303430B4020210B432B7010AB9C
:10CF3000239318AB2493236823AEDB68328120004F
:10CF400098470025B0810BAA310028003561FFF712
:10CF500045F80DAB1B88AB4200D0D9E0019B0133F3
:10CF60000193029B04330293E8E50024099BA3424A
:10CF700020D01E002500023EF6B23400B54219DA78
:10CF80007B9AAB00D4582000FEF71FFBA0239B0127
:10CF9000984202D13A00683207E02000FEF715FB04
:10CFA0005A4B984204D13A0071321378013313700E
:10CFB0000135E2E73B00683318780C23584303F04F
:10CFC00025FE3B00F86671331878A400000103F0D9
:10CFD0001DFE7B9E7867331904930023029301930F
:10CFE0000393049B9E426ED034682000FEF7EBFA58
:10CFF000010032A8FEF799FF32A8FEF7C5FF050031
:10D0000032A8FEF7C3FF022808D16B7829781B02EB
:10D010001DAA0B4313800123937019E010222900ED
:10D0200023A803F007FE6B7B2A7B1B0213437121AD
:10D030001DAA138000230AAA5218137001390AAAE4
:10D040005218137022390AABC91823A8FEF7D4FF6F
:10D050002000FEF7BAFAA0239B01984214D10C20BD
:10D06000019B00215843FB6E1B181C601D9A5A60DF
:10D07000FB6E04221818083003F0E5FD019B0394B1
:10D080000133DBB201931CE02000FEF79EFA1F4B38
:10D09000984216D1029B7A6F1B01D218211E00D034
:10D0A000211F1160039951601D99916000217A6FD1
:10D0B000D21811737A6FD318D981029B0133DBB276
:10D0C000029304368DE7F868002803D0FEF783FA50
:10D0D000002831D13B6838009B69984773B0F0BD98
:10D0E0000BAA10A90120FEF775FF089536E701206D
:10D0F0008B4303430B40102117E7C04680380200E2
:10D10000853802008A3802008F38020003280000A8
:10D110000DAA13889D4208DA236829001B692000A4
:10D12000984732ABE8540135F2E70BAB1888002181
:10D1300032ABFFF73DFC11E739001C2300224031E0
:10D14000F868FEF76CFAC5E70023F0B504000E009E
:10D1500089B0009301330193230061331B78009A57
:10D160009A4253DA14255543636E5D192B68B34216
:10D1700048D1A36B9E4204D1236831005B6A200032
:10D180009847336830001B69984702ABD8803368F2
:10D190003000DB682F89984702AA03000632380066
:10D1A000002104AFFFF704FC10220021380003F037
:10D1B0004AFD2B893B8002AB0633BB602B7C002BE6
:10D1C0000ED0220060321378002B08D0013B137080
:10D1D0000123BB70A08F3900FEF704FF00E001932C
:10D1E0006B7C002B0ED0220060321378002B08D00D
:10D1F000013B13700223BB70A08F3900FEF7F2FED3
:10D2000000E00193009B01330093A5E7019809B06A
:10D21000F0BD000010B50400FEF7E0FA0F4B00214E
:10D2200008332360230033331970597001235B42A4
:10D23000A3872000230040306033A1631C221970B3
:10D24000597061661972E1661974597461671976CB
:10D25000E06503F0F8FC200010BDC0461C38020059
:10D2600003210A4802680A430260094802680A4327
:10D2700002600849084A094B9B1A03DD043BC85861
:10D28000D050FBDC00F0D6F9FDF774FF2405004018
:10D2900054050040743D0200802000208C210020B5
:10D2A000FEE7FEE7FEE7FEE7FEE7FEE7F8B5314FF3
:10D2B0000D00396804001600002920D110222E48E4
:10D2C00003F0C1FC0121042249422C4803F0BBFCBD
:10D2D00040212B4B2B4AD967C0235B00D1508533AB
:10D2E000FF33D3589C466046274B03408020C00341
:10D2F0000343C12080001350012311603B601C2CAC
:10D3000037D8032E05D0042E05D0022E31D10321AB
:10D3100002E0022100E0012100221C4BA400E4589D
:10D32000164B98561E00471C1ED1134893001D50E3
:10D330001748B4541B18A220C0001E58154D2402D3
:10D340003540F8261D5076011D583440090421430C
:10D350002943195001211C580C431C50C1239140F2
:10D360000B4A9B00D15004E08442DED00132042AF3
:10D37000D7D1F8BD70230020742300206A23002039
:10D3800004E100E000E100E0FFFF00FF943802004C
:10D3900000600040FFE0FCFF70B5C1260024B6002D
:10D3A0000C4BA200D5182B68012B0FD1A3400A49C2
:10D3B000895919420AD0094BE356013304D0084B6E
:10D3C000D358002B00D0984700232B600134042C45
:10D3D000E6D170BD00610040006000406A2300207B
:10D3E00074230020084A0949094B10B51B68885866
:10D3F000FA22190A1B0618439200002300F006FFC8
:10D400004904C00B084310BD040500000010014092
:10D410008423002070B5041E09D0FFF7E3FF050048
:10D4200000F014F8FFF7DEFF401B8442F8D870BD0F
:10D430000022044B9A60044A13680133DBB2136084
:10D440007047C046FC100140842300207047000054
:10D45000F7B500231C2877D83C4B8000C258042A1B
:10D4600014D006D8022A0DD00ED80423012A14D0D5
:10D4700069E0062A0ED00BD31A2A0DD002231B2AEC
:10D480000BD060E0082308E0102306E0202304E02E
:10D49000402302E0802300E001232D4A1268082A7D
:10D4A00004D9092A05D00A21022404E00821002415
:10D4B00001E011000124A02501261C272548ED00CC
:10D4C0004651254D254E2D681B02AD003D4001956E
:10D4D000234D2D6800958559AC466746214D3D404A
:10D4E0001D4385518359C0259C46009BAD021D40BC
:10D4F000FF2367461B023B402B43019D1D43009BBE
:10D500005F0160231F402B003B431C4301238451D8
:10D51000154C036063680F48002BFBD00024124BAE
:10D5200001255C60A123DB00C3584560A025ED0008
:10D5300044511BB2914207D002D98A1AD34003E06A
:10D54000521A934000E000231800FEBD94380200F8
:10D55000942000200070004090200020040500006E
:10D560008C200020FF00FFFFFC7000401E4BF0B538
:10D57000596C18001D4A002914D0A025A1260023AB
:10D580000124ED05F600D1584F1C06D0D7187F684E
:10D59000002F02D027008F40AF5114333C2BF2D123
:10D5A00000234364131DA02540329446002001242B
:10D5B0000F4EED05DA680F49920057180A495218C4
:10D5C000526C002A0CD01A1F1268511C05D0196821
:10D5D000FF2902D021009140A9513A00FC32506449
:10D5E00014339C45E6D1F0BDFC900040982000200B
:10D5F0000C0500000090004000B51C2816D80C4A0D
:10D6000083009B58032911D8A0220800C133FF339F
:10D61000D2059B0000F002FC02080406002104E091
:10D620000C2102E0042100E00321D15000BDC046DE
:10D63000943802002D4B10B51A78012A19D12C4AC2
:10D640001268120715D12B4AE0241168F022080055
:10D65000104021420BD128490968114209D12749BC
:10D66000274A11608021274A0902116001E0302811
:10D67000F1D01A78012A0DD11D490968090709D18D
:10D68000F0201C4909680140402903D11A49096862
:10D69000014223D01B68DBB2012B25D1144B1B6840
:10D6A0001B0721D1134B1A68F0231A40A02A04D17A
:10D6B000114A12681A4203D016E0D02A14D1F7E7B3
:10D6C000114B1A68012A03D1C022104B1A600BE0DB
:10D6D0000F4A1A601A68012AFCD1F5E7C12180209F
:10D6E000C900C0054250D5E710BDC046E00F00F0AC
:10D6F000E40F00F0E80F00F0EC0F00F0DFFF07C0D0
:10D7000004050040186C004000EC064014EC064094
:10D7100075930000F7B506000D000C008B180193FF
:10D72000019B671B9C4207D0336821781B6830003F
:10D73000984701340028F3D13800FEBD70B50500CC
:10D740000C00081E07D004F0EFF82B6802005B689D
:10D7500021002800984770BD10B5FFF7EFFF10BDFE
:10D7600010B503681B68984710BD000010B502494A
:10D77000FFF7E4FF10BDC0460839020070B5050090
:10D78000FFF7DCFF04002800FFF7F0FF001970BD71
:10D79000F0B5160000228DB002AB053301900D00EC
:10D7A000DA77012E00D80A260BAC2800310000F0F1
:10D7B000C5FB0F00CBB228003100009300F038FB0E
:10D7C000FBB237330500013CDBB2092F02D8009BC6
:10D7D0003033DBB22370002DE7D121000198FFF731
:10D7E000ADFF0DB0F0BDF8B506000C00151E04D15C
:10D7F0000368C9B21B68984714E0D2B20A2D0DD154
:10D800002A0000290ADA2D21FFF7AAFF614207004A
:10D810002A003000FFF7BCFF381803E02100300079
:10D82000FFF7B6FFF8BD10B5FFF7DDFF10BD70B50F
:10D830000500FFF7D8FF04002800FFF797FF001945
:10D8400070BD0000F0B51E0085B00AAB1B7831003A
:10D85000050010001700029300F0B2FA45490028B5
:10D8600006D03800310000F0ABFA012804D142495B
:10D870002800FFF763FF7BE0E022404B12063800F0
:10D88000310000F075FC002801D03D49F0E7E022AE
:10D890003C4B12063800310000F056FC0028F4D151
:10D8A000002200233800310000F04EFC002808D090
:10D8B0002D212800FFF754FF80231B060190F61846
:10D8C00000E00190002400202F49029BA34206D0D3
:10D8D00000222E4B013401F05BFDE4B2F5E733008A
:10D8E0003A0001F029FA0F00060000F0BBFC0A2202
:10D8F000039001002800FFF74BFF019BC418029B17
:10D900002000002B34D0039802F0ACFF0B00020083
:10D910003900300002F0DAFB06000F0028001C4935
:10D92000FFF70CFF2318029C0193184B00223000D4
:10D93000390002F051F90F00060002F01BFF0A2225
:10D94000010002902800FFF74EFF019B013C1B18CD
:10D950000298019302F044FF02000B0030003900EE
:10D9600002F0B4FBE4B206000F00002CDDD10198F8
:10D9700005B0F0BD0B3902000F390200FFFFEF4187
:10D9800013390200FFFFEFC10000E03F0000244018
:10D990001739020037B51D00069BDBB200932B0040
:10D9A000FFF750FF3EBD0120704710B503681322FA
:10D9B000DB69984710BD70470369054A9950FC33ED
:10D9C0001A6A002AFCD0002201201A627047C04661
:10D9D0001C050000030010B55C331A781F231340A8
:10D9E0000122110099400D4B0424D967C22103691B
:10D9F00089005C505A60DA60A0220021D200995060
:10DA00000122074952425A50064914305A500C39E3
:10DA10005A5008315A5000F0B1F910BD04E100E04D
:10DA20000C0500001405000010B5143000F0B8F922
:10DA300010BD10B5143000F0B9F910BD10B5143098
:10DA400000F0A0F910BD0000030070B55E331C7833
:10DA50000269604BD45003005D331C785E4BD45098
:10DA6000030061331C785D4B012C0CD105005F3540
:10DA70002E78A225ED005651050060352E78A1259F
:10DA8000ED00565100E00024D4509623DB0099426B
:10DA900038D996231B01994237D996235B019942C5
:10DAA00036D996239B01994234D9E1239B019942AF
:10DAB00032D99623DB01994231D9E123DB01994226
:10DAC0002FD996231B0299422DD9E1231B0299429B
:10DAD0002BD996235B02994229D9E1235B02994213
:10DAE00027D9E1239B02994225D93D4B994224D95C
:10DAF000E123DB02994223D9E1231B03994221D878
:10DB0000384B21E09E23DB021EE09D231B031BE01C
:10DB1000354B19E0354B17E0EC239B0314E0344BF5
:10DB200012E0344B10E0344B0EE0344B0CE0344B3D
:10DB30000AE0344B08E0344B06E08023DB0403E0CA
:10DB4000324B01E080235B0531490024535004230C
:10DB5000243953501100FC31CC600C62C1210134D6
:10DB6000890014605C309460535003781F202200B9
:10DB7000D9B20840824080342648FF345BB202515B
:10DB8000002B13DA0F230B40083B234C9B089B0010
:10DB90001B1903242140A140FC348C40DD69A543BE
:10DBA000C0248C4021002943D96111E0194C9B0805
:10DBB0009B001B1903242140A140C025FC348C404C
:10DBC000AD005E59A643C0248C4021003143595119
:10DBD000026070BD0C050000140500006C0500001B
:10DBE00090D0030000D0BE0E00B0130000502700FC
:10DBF00000A04E0000F0750000509D0000F0EB000A
:10DC000000903A0100E0D70100B0AF0300705F0759
:10DC10002405000000E100E000ED00E0F7B500930E
:10DC200008AB1B7800250193FA2304009B00836056
:10DC30000E4B45600833036014300F00160000F0EF
:10DC400087F823005C3327611E70009B084A9B0005
:10DC5000995823005D331970019B20009B009A584E
:10DC600023005E33DD701A70FEBDC0461C39020011
:10DC700094380200036910B51A00FC32D26804001F
:10DC8000002A0AD0A322D20099581430C9B200F059
:10DC90006AF800222369FC33DA6010BD10B502482F
:10DCA000FFF7E8FF10BDC046882300200D2307B50D
:10DCB000022200930249013B0248FFF7AFFF07BD74
:10DCC00000200040882300207047000010B500F0BD
:10DCD00015F8FFF7F9FF0120FFF79CFBFDF7D0FBDC
:10DCE000FDF712FB024B002BFAD000E000BFF7E774
:10DCF0000000000010B502F093FF10BDC421114ACE
:10DD000089005058104B0340C02000020343535079
:10DD1000802391399B02FF3953501360A321802344
:10DD200001220020DB05C9005A509A60074B1039C8
:10DD30005850C120022180001950403019501A60FB
:10DD40007047C04600E100E0FF00FFFF0010014007
:10DD500010B540220021040002F075FF00232000CE
:10DD60002364636410BD3F23026C10B5541C234030
:10DD7000446C9C4201D08154036410BD00230364B1
:10DD800043647047436C026C934206D03F21C25CEF
:10DD900001330B404364100001E001204042704712
:10DDA000036C406C181A00D540307047436C026C0D
:10DDB000934201D0C05C01E0012040427047000066
:10DDC0000A000300024330B50220002A00D130BD12
:10DDD00080221206914216D00C4A0D4C8A1804205B
:10DDE000A242F4D90B4A8A18A242F0D90A4A490041
:10DDF000490803209142EAD9064A00209142E6D11F
:10DE000058425841E3E7002BE1D0EFE70000F0FF74
:10DE1000FFFFDF7F0000F07FFFFF0F0002B47146BD
:10DE200049084900095C49008E4402BC7047C0465D
:10DE3000002243088B4274D303098B425FD3030A49
:10DE40008B4244D3030B8B4228D3030C8B420DD35C
:10DE5000FF22090212BA030C8B4202D312120902EA
:10DE600065D0030B8B4219D300E0090AC30B8B4228
:10DE700001D3CB03C01A5241830B8B4201D38B03D6
:10DE8000C01A5241430B8B4201D34B03C01A52417B
:10DE9000030B8B4201D30B03C01A5241C30A8B42BE
:10DEA00001D3CB02C01A5241830A8B4201D38B02A9
:10DEB000C01A5241430A8B4201D34B02C01A52414D
:10DEC000030A8B4201D30B02C01A5241CDD2C309BF
:10DED0008B4201D3CB01C01A524183098B4201D33B
:10DEE0008B01C01A524143098B4201D34B01C01A26
:10DEF000524103098B4201D30B01C01A5241C3089E
:10DF00008B4201D3CB00C01A524183088B4201D30C
:10DF10008B00C01A524143088B4201D34B00C01AF8
:10DF20005241411A00D20146524110467047FFE764
:10DF300001B5002000F0F0F802BDC0460029F7D07E
:10DF400076E7704703460B437FD4002243088B4299
:10DF500074D303098B425FD3030A8B4244D3030B70
:10DF60008B4228D3030C8B420DD3FF22090212BA35
:10DF7000030C8B4202D31212090265D0030B8B42B1
:10DF800019D300E0090AC30B8B4201D3CB03C01A9B
:10DF90005241830B8B4201D38B03C01A5241430B76
:10DFA0008B4201D34B03C01A5241030B8B4201D366
:10DFB0000B03C01A5241C30A8B4201D3CB02C01AD1
:10DFC0005241830A8B4201D38B02C01A5241430A49
:10DFD0008B4201D34B02C01A5241030A8B4201D338
:10DFE0000B02C01A5241CDD2C3098B4201D3CB01DF
:10DFF000C01A524183098B4201D38B01C01A52418E
:10E0000043098B4201D34B01C01A524103098B4291
:10E0100001D30B01C01A5241C3088B4201D3CB007C
:10E02000C01A524183088B4201D38B00C01A52415F
:10E0300043088B4201D34B00C01A5241411A00D20F
:10E0400001465241104670475DE0CA0F00D0494278
:10E05000031000D34042534000229C4603098B42E8
:10E060002DD3030A8B4212D3FC22890112BA030A70
:10E070008B420CD3890192118B4208D389019211F2
:10E080008B4204D389013AD0921100E08909C30977
:10E090008B4201D3CB01C01A524183098B4201D379
:10E0A0008B01C01A524143098B4201D34B01C01A64
:10E0B000524103098B4201D30B01C01A5241C308DC
:10E0C0008B4201D3CB00C01A524183088B4201D34B
:10E0D0008B00C01A5241D9D243088B4201D34B0066
:10E0E000C01A5241411A00D20146634652415B10A8
:10E0F000104601D34042002B00D549427047634689
:10E100005B1000D3404201B5002000F005F802BDCD
:10E110000029F8D016E770477047C0468446101CA7
:10E1200062468C46191C634600E0C0461FB501F0EC
:10E13000E9FC002801D40021C8421FBD10B501F040
:10E140003DFC4042013010BD10B501F0DBFC002861
:10E1500001DB002010BD012010BDC04610B501F04C
:10E16000D1FC002801DD002010BD012010BDC046FB
:10E1700010B501F063FC002801DC002010BD012077
:10E1800010BDC04610B501F059FC002801DA00208E
:10E1900010BD012010BDC0468446081C6146FFE743
:10E1A0001FB500F079FB002801D40021C8421FBD33
:10E1B00010B500F005FB4042013010BD10B500F075
:10E1C0006BFB002801DB002010BD012010BDC04604
:10E1D00010B500F061FB002801DD002010BD01201A
:10E1E00010BDC04610B500F013FB002801DC002074
:10E1F00010BD012010BDC04610B500F009FB00287D
:10E2000001DA002010BD012010BDC046F0B54F4618
:10E210004646C0B41604360C9946330005042C0C4F
:10E22000070C150C63437E436F4365431C0CAD190B
:10E2300064199C46A64203D980235B029846474452
:10E240006346250CEF191D044B464A4343432D0CEE
:10E25000240464199918C91920000CBC90469946E9
:10E26000F0BDC04670B500220C4B04000D00FFF756
:10E2700089FF002804D12000290002F07BFA70BD3C
:10E28000064B00222000290001F020FF02F072FA64
:10E2900080231B069C466044F1E7C0460000E04135
:10E2A000F8B54A02430244004E00C50F240E280070
:10E2B0009B09360EC90F92098D4259D0A01B002828
:10E2C00000DC8DE0002E1AD1002A00D079E05A0738
:10E2D00004D00F221A40042A00D004335A0138D542
:10E2E0000134FF2C00D189E028009B015B0AE4B2D5
:10E2F0005B02E4055B0A2343C0071843F8BDFF2C0B
:10E30000E5D08021C9040A431B2800DD89E01600FE
:10E310002021C640081A8240511E8A4132439B1A6E
:10E320005A0114D59B019E09300002F0B3FB053859
:10E330008640844265DC041B330020200134E34026
:10E34000041BA640721E964100243343BFE75A07C0
:10E35000BFD1DF082800FF2C2FD1002F00D187E08C
:10E360008022D20313003B435B025B0AFF24BFE71A
:10E37000A11B002949DD002E29D0FF2CA7D0802623
:10E38000F60432431B2900DD8DE017002026CF4024
:10E39000711A8A40511E8A413A439B185A01D6D5B8
:10E3A0000134FF2C64D0012276491A405B080B40EF
:10E3B00013438CE7031ECAD100207B025B0AE4B240
:10E3C00096E701380028AAD0FF2C9DD17FE7002ACC
:10E3D00000D17CE701390029DFD0FF2CD2D176E7CC
:10E3E000002820D1601CC0B2012853DD80279E1A6E
:10E3F000FF0437402FD0D61A0D0095E728000023E0
:10E4000076E7614B241A334061E700294DD1611C46
:10E41000CEB2012E2FDDFF292AD09B185B080C00FD
:10E4200055E701227BE7002C1BD1002B5BD0C043BA
:10E4300000280CD0FF2E7ED01B2800DD92E01D00AE
:10E440002024C540201A8340581E83412B43D31AF1
:10E4500034000D0064E7002E00D065E700200024A2
:10E46000ABE7FF2E67D08024E40440422343E3E778
:10E47000FF2400233CE7002C61D1002B7ED0002A32
:10E4800000D124E79B185A0100D460E73E4A0C00F3
:10E4900013401CE7002C1ED1002B2FD1002A66D080
:10E4A00013000D0013E7012277E7002C1FD1002B8A
:10E4B0005AD0C94300290BD0FF2E50D01B295FDC56
:10E4C0001F002024CF40611A8B40591E8B413B43D3
:10E4D0009B18340062E7002B1CD1002A4AD013009D
:10E4E0000D00FF24F3E6130034000D00EFE6FF2ECD
:10E4F00035D08024E40449422343DFE7002A00D1D9
:10E50000E5E68027981AFF04074000D152E7D31AA6
:10E510000D00DCE6FF24002A00D1D8E68020DB08CD
:10E52000C003034204D0D208024201D113000D00FF
:10E53000DB00FF24CBE61300FF240D00C7E6002B11
:10E540000DD0FF24002A00D1C1E68021DB08C903D9
:10E550000B42EDD0D2080A42EAD11300E8E71300DB
:10E56000FF24B4E6012372E713003400AFE600276E
:10E57000002022E780270020FF03F1E61300A6E633
:10E580000123A5E7FFFFFF7DFFFFFFFBF0B5564628
:10E5900044465F464D46F0B444024600C70F83B080
:10E5A0008846650A360EBA463DD0FF2E22D000239B
:10E5B000EC00802599469B46ED0425437F3E43466B
:10E5C0005C025800DB0F640A000E984636D0FF2824
:10E5D00030D080230021E400DB041C437F38301A54
:10E5E0000190484642460843724E800030587A40B7
:10E5F00013008746002D44D108239946063B9B46CD
:10E60000DDE70122FF2000241A406402C305640AEA
:10E61000D2071C431443200003B03CBC90469946EB
:10E62000A246AB46F0BD002D20D104239946033B02
:10E630009B46C4E7002C17D1022102E0002C0AD12E
:10E640000121321A01924A4643460A435A4892002F
:10E6500082587B409746200002F01CFA431F763018
:10E660009C4040420021BAE70321B8E7280002F0AD
:10E6700011FA431F9D4000237630464299469B463F
:10E680009DE70C239946093B9B4698E7802400228E
:10E69000E403FF20B9E70024C2468B465A4653469E
:10E6A000022AAED0032A7DD0012A31D101220020D6
:10E6B0001A400024A9E70122101A1B2856DD1A402F
:10E6C00000200024A1E78023DB031D424BD18023DF
:10E6D000DB032B435C02640A3A00FF2095E76D01DF
:10E6E0006001854230D2019A0024013A01921B2236
:10E6F0000127290064006D00002901DBA84201D830
:10E700002D1A3C43013A002AF3D16A1E95412C434D
:10E7100001987F300028CEDD620704D00F2222400E
:10E72000042A00D00434220103D5244A019814405D
:10E730008030FE2800DD64E70122A401640AC0B233
:10E740001A4062E72C00A9E72D1A1A220124CFE70C
:10E750006B02BCD500248023DB031C436402640AE3
:10E760004246FF2051E71C42B3D1F4E721002022AA
:10E77000C140101A8440621E94410C43620704D0C9
:10E780000F222240042A00D00434620104D5012261
:10E7900001201A40002438E70122A401640A1A402B
:10E7A000002032E78023DB031C436402640A5246E4
:10E7B000FF202AE74C3902008C390200FFFFFFF7E7
:10E7C000430270B542004C005D0AC30F4802120EAE
:10E7D000460A240EC90FFF2A0FD0FF2C11D00120AA
:10E7E000A24200D070BDB542FCD18B420DD0002AB0
:10E7F000F8D12800431E9841F4E70120002DF1D103
:10E80000EBE70120002EEDD1E9E70020EAE7C04662
:10E810004302F0B542005D0AC30F4802440A4800B3
:10E82000120E000EC90FFF2A1FD0FF2822D0002A87
:10E8300009D16E426E4100280FD1002C0DD100206D
:10E84000002D09D005E0002801D1002C01D08B4219
:10E8500013D0584201231843F0BD002EF7D0484290
:10E860004141012049420843F6E7002DDDD0022056
:10E870004042F1E7002CDAD0F9E78242E9DC04DB20
:10E88000A542E6D80020A542E6D2584243410120E5
:10E890005B421843E0E7C0464302F0B542004C003B
:10E8A0005E0AC30F4802120E450A240EC90FFF2A42
:10E8B00017D0FF2C19D0002A0BD170427041002CC8
:10E8C00017D0002807D0484241410120494208435F
:10E8D000F0BD002C13D08B4214D0584201231843B2
:10E8E000F6E70220002EF3D1E3E70220002DEFD15E
:10E8F000E1E7002DE5D10020002EE9D0EDE7002D65
:10E90000E9D1EAE7A242E8DC04DBAE42E5D8002028
:10E91000AE42DDD25842434101205B421843D7E763
:10E92000F8B54A024E0043024400240EC50F9B096D
:10E93000360EC90F9209FF2E00D183E0012041401D
:10E94000A01BA9425CD0002800DC95E0002E1CD161
:10E95000002A00D081E05A0704D00F221A40042A6E
:10E9600000D004335A013BD50134FF2C00D191E093
:10E9700001209B015B0AE4B205405B02E4055B0AEF
:10E98000ED0723432B431800F8BDFF2CE3D0802173
:10E99000C9040A431B2800DD90E016002021C64070
:10E9A000081A8240511E8A4132439B1A5A0115D5DA
:10E9B0009B019E09300002F06DF8053886408442C4
:10E9C0006CDC041B330020200134E340041BA64010
:10E9D000721E964100243343BDE70D005A07BCD197
:10E9E000DF0801231D40FF2C33D1002F00D190E020
:10E9F0008022D20313003B435B025B0AFF24BCE787
:10EA000000284FDD002E2ED0FF2CA4D08025ED0451
:10EA10002A431B2800DD97E016002025C640281A4F
:10EA20008240501E824132439B185A01D5D5013491
:10EA3000FF2C6DD001227B481A405B080340134332
:10EA40000D0088E7002A00D07AE777E7031EC5D1DA
:10EA500000257B025B0AE4B28FE701380028A4D0CE
:10EA6000FF2C97D177E7002A00D174E701380028FE
:10EA7000DAD0FF2CCDD16EE7002821D1601CC0B2C6
:10EA8000012858DD80279E1AFF0437402FD0D61A60
:10EA90000D008FE701231D4000236EE7624B241A0F
:10EAA000334058E7002851D1601CC6B2012E33DD37
:10EAB000FF282DD09B185B0804004CE7012274E767
:10EAC000002C1AD0FF2E1FD08024E40440422343A0
:10EAD0001B2800DD96E01D002024C540201A83403D
:10EAE000581E83412B43D31A34000D005EE7002EDD
:10EAF00000D05FE700250024ABE7002B44D0C043E3
:10EB00000028F0D0FF2EE3D11300FF240D0022E7F0
:10EB10000D00FF24002330E7002C5DD1002B7DD0B9
:10EB2000002A00D117E79B185A0100D456E73E4A45
:10EB3000040013400FE7002C1ED1002B2FD1002A18
:10EB400065D013000D0006E701226DE7002C1FD1F0
:10EB5000002B59D0C04300280BD0FF2E4FD01B28CC
:10EB60005EDC1D002024C540201A8340581E8341CE
:10EB70002B439B18340058E7002B1CD1002A49D0A6
:10EB800013000D00FF24E6E6130034000D00E2E65A
:10EB9000FF2E34D08024E40440422343DFE7002AE0
:10EBA00000D1D8E68027981AFF04074000D14DE72E
:10EBB000D31A0D00CFE6FF24002A00D1CBE6802037
:10EBC000DB08C003034204D0D208024201D1130083
:10EBD0000D00DB00FF24BEE6002B10D0FF24002A2E
:10EBE00000D1B8E68020DB08C003034203D0D2087E
:10EBF000024200D11300DB000D00FF24ABE613003E
:10EC0000FF24A8E601236EE713003400A3E60027E3
:10EC100000251EE780270025FF03E9E613009AE69A
:10EC20000123A6E7FFFFFF7DFFFFFFFB70B5002874
:10EC300030D0C317C5185D40C40F280001F02AFF6B
:10EC40009E231B1A962B0DDC9622D21A95406A023F
:10EC5000520AD8B25202C005520AE40702432243C4
:10EC6000100070BD992B19DC9922D21A9540124AD6
:10EC70002A40690704D00F210D40042D00D0043232
:10EC8000510103D50C4B1A409F231B1A9201520AC3
:10EC9000D8B2DFE7002400200022DBE705222E00A7
:10ECA000121AB921D6402A00C91A8A40551EAA4113
:10ECB00035001543DBE7C046FFFFFFFB70B5041EC0
:10ECC00028D001F0E7FE9E231B1A962B0ADC962221
:10ECD000D21A94406202520AD8B25202520AC005B5
:10ECE000104370BD992B18DC9922D21A9440114A16
:10ECF0002240610704D00F210C40042C00D00432C4
:10ED0000510103D50B4B1A409F231B1A9201520A43
:10ED1000D8B2E2E700200022DFE705222500121A20
:10ED2000B921D5402200C91A8A40541EA2412C00A4
:10ED30001443DCE7FFFFFFFBF8B556465F464D4640
:10ED40004446F0B40F00FD0FAA4609037C002E00D4
:10ED50005F00450F490A7F0D2943C5001803BC46D3
:10ED6000400A570F640DDB0F3843D2009A4500D19B
:10ED7000AAE06646A61B002E00DCFFE06346002BDF
:10ED800039D10300134300D0D9E06B0709D00F231A
:10ED90002B40042B05D02B1DAB42AD416D424919D0
:10EDA0001D000B0200D482E0CA4B01349C4200D10A
:10EDB000FEE00A005646C84BED081A4050076405AD
:10EDC00052020543120B640D002112030B0D1B05AB
:10EDD0006405120B1A436308C04CF60714401C4329
:10EDE000640064083443280021003CBC90469946E6
:10EDF000A246AB46F8BDB74B9C42C6D080231B044D
:10EE00001843382E00DDEBE01F2E00DD1EE120232D
:10EE10009B1B9C4603006746BB4098461300474631
:10EE2000F3403B436746BA40571EBA4113430200C2
:10EE3000F240EB1A9D42B6411D008A1A7642911BA0
:10EE40000B0231D54A02560A002E00D1B4E0300040
:10EE500001F020FE0300083B1F2B00DDB5E020225F
:10EE60002900D21AD1409E400A009D4032439C4264
:10EE700000DDB1E01C1B631C1F2B00DDD5E0202151
:10EE800014002800C91A8C40D8408D400443DA4051
:10EE9000681E854111002543002476E74146314331
:10EEA00000D134E2310045466B0700D06FE756468B
:10EEB0004807ED08C9080543864B9C4235D00A0334
:10EEC0006405120B640D7FE76346E31A9B46002B33
:10EED00000DC8BE06746002F3CD07E4FBC4200D167
:10EEE00053E780273F0438435B46382B00DCF7E0CC
:10EEF0000243501E82410020D2B253194218AB4245
:10EF000089411D00494289180B02CDD5714B01344E
:10EF10009C4200D13DE101206F4A6B080A40284025
:10EF20001843D507054351082FE72B000B4300D1A9
:10EF3000CBE180231B030B431A03120B44E7013E72
:10EF4000002E6DD1AE1AB5429B41091A5B42C91A17
:10EF5000350075E70700174300D116E701235B4230
:10EF60009C46E3445B46002B00D0E0E0AA18AA428E
:10EF70009B4109185B4259181500C5E7002E75D151
:10EF8000661C7605760D012E00DCF3E0AE1AB04665
:10EF90004545BF410E1A7F42F61B370200D48FE071
:10EFA000551BAA42B641411A76428E1B9A464BE740
:10EFB00056460022002507E7280001F06BFD2030AF
:10EFC0000300083B1F2B00DC49E72A002838824059
:10EFD00000259C4200DC4DE73F49E41A1140D4E68D
:10EFE0000243501E8241D3B2002222E7002B00D000
:10EFF000F3E0631C9C465B055B0D012B00DC9FE08E
:10F00000344B9C4500D1C3E0AA180918AA4280419C
:10F0100040424118CD075208154349086446B4E6FA
:10F020002C4B9C4200D0ECE6AFE611001F3CE140C7
:10F030000C00202B00D17FE04021CB1A9A401543D1
:10F040006A1E95410021254300242DE73300070067
:10F05000203BDF403B00202E70D04027BE1BB0403D
:10F060000243501E824113430022E2E6002C4FD09F
:10F07000184CA44500D1ABE08024240476422143FF
:10F08000382E00DDDFE01F2E00DD43E12027BC1B12
:10F09000A1460C004F46BC40A0462C004746F44019
:10F0A0003C434F46BD406F1EBD41F1402C43151BF4
:10F0B000AA429241411A5242891A64469A46BFE6D0
:10F0C00041464546314300D0BEE6002600240025D7
:10F0D000F2E6C046FF070000FFFF7FFFFFFF0F8043
:10F0E0001F2B59DC2027FF1ABC46070063469F40B0
:10F0F0005B46B9461700DF40B8464F4643461F43BC
:10F1000063469A40531E9A415B463A43D840F4E620
:10F110000C002C435CD0F643002E55D1551BAA425F
:10F12000A441411A6442091B9A46644688E6964FF8
:10F13000BC4200D0D8E628E6002280E700208FE716
:10F140000B002B43002C00D0C2E0002B00D101E1CA
:10F150000300134300D118E6AB18AB42B6410918BF
:10F16000764271180A0200D409E1884A1D00114054
:10F1700064460AE6002C5BD10E002E4300D08AE0E4
:10F180000100114300D1C2E0010015009A46FCE5E0
:10F190006446002100258FE620235B429C46DC4428
:10F1A00063460700DF405B46BC46202B00D1ACE045
:10F1B00040235F46DB1B98400243501E824163465A
:10F1C00013431A00002098E66F4CA44500D057E77F
:10F1D0000100150064469A46D7E5002C39D10C0091
:10F1E0002C436ED0DB43002B1AD0674CA44568D06B
:10F1F000382B00DDA4E01F2B00DDAEE020240F0043
:10F20000E41AA740B9462F00DF40B846A3464F4650
:10F21000444627435C46A5406C1EA541D9403D436A
:10F22000AD1895429B4109185B42591864466BE63C
:10F230000C002C4315D1010011437BD001001500B7
:10F240009A46514CA1E50D43691E8D410021ECB257
:10F250002DE74D4CA44534D0802424045B42214347
:10F26000C6E7040014434ED0ED084C072C4380251C
:10F27000C9082D03294208D0C6082E4205D1D2085C
:10F28000410711430C009A463100620FC900E500A6
:10F2900011433D4C79E50600164300D175E5AE1AE1
:10F2A000B0464545BF410E1A7F42F61B370200D4D7
:10F2B000F4E5551BAA42B641411A7642891B9A468B
:10F2C00063E50100150064465FE5002200257BE54B
:10F2D000002B3BD00300134315D0ED084B072B4305
:10F2E0008025C9082D03294207D0C4082C4204D127
:10F2F00041070B002100D2081343C9005A0F1143E4
:10F30000DD00214C41E5204C3FE5002054E700267C
:10F310000025D1E534000F00203CE7403C00202EC2
:10F320002BD04027BE1BB1400D43691E8D410021EB
:10F330002C43BCE6802100260903134C0025BBE5C5
:10F340000D43691E8D410021EDB269E701001500F2
:10F350000D4C1AE50100150017E51C000F00203CBC
:10F36000E7403C00202B0CD04027FB1A99400D436E
:10F37000691E8D410021254352E70021D4E71D007D
:10F3800092E50021F3E7C046FF070000FFFF7FFF83
:10F39000F0B556464D4644465F46F0B41D000E0398
:10F3A0004C00CB0F87B0070092468146360B640DA8
:10F3B00098466AD06D4B9C4235D08022430F120490
:10F3C0001343F6001E43C3009946694B00279C4631
:10F3D0000023644402932B0368001B0BED0F51467E
:10F3E0009B46400D009500D178E0604B98426CD070
:10F3F0005B46DA004B0F802109040B4313439B4605
:10F400005346D9005A4B9C46002360444246201A7A
:10F410006A40924601901F430F2F00D9B0E0554833
:10F42000BF00C0598746374300D088E00023994683
:10F430000233082700260293CDE74346B3464946E8
:10F440000093029B009A9246022B00D0BFE100215C
:10F4500053460122002689461A40444B00213603B8
:10F460000C0D2405360B2643434C1B0526401E433A
:10F470007600D207760816434846310007B03CBCF8
:10F4800090469946A246AB46F0BD330003434FD0A9
:10F49000002E00D1BCE1300001F0FCFA03000B3B70
:10F4A0001C2B00DDADE11D220100D31A08393A0002
:10F4B0008F408E40DA40B9461643304B00279C46B9
:10F4C000002360444442029385E753465A4613435F
:10F4D0002CD1002300219B46023397E70B4320D019
:10F4E0005B46002B00D19EE1584601F0D3FA0300A1
:10F4F0000B3B1C2B00DD8FE102005946083A91407E
:10F500008B461D21CB1A5146D9400B0059460B435F
:10F5100051469B469140194B9C4660444042002313
:10F5200074E7002300219B4601336FE703236DE757
:10F530000023994601330427002602934BE7032357
:10F540000C27029347E70122D51A382D00DCB0E1E1
:10F5500053461A4000210023002689467EE70023F7
:10F560008026994600223603004B77E7FF0700000C
:10F5700001FCFFFFCC390200FFFF0F80F303000006
:10F580005E4500D972E100D16DE1019B4D46013B22
:10F5900001930023340002935B461E020B0E1E43B0
:10F5A0000B020393330C994633041B0C494620008D
:10F5B0000093FEF73DFC009B37004343060049469D
:10F5C00020009846FEF7BAFC2C0C09040C43A04519
:10F5D00009D9E419731EA74200D95CE1A04500D8FF
:10F5E00059E1023EE4194346E41A49462000FEF779
:10F5F0001FFC0300009A80465343494620009B4667
:10F60000FEF79CFC2A040904120C0A4393450DD909
:10F610004346D219013B974200D93AE1934500D8BD
:10F6200037E102235B429C46D219E0445B46D21A82
:10F630004346360433439B460399180C0B0C1D00BC
:10F64000059309045B46090C0C001B041B0C444386
:10F65000049159436B4368431B190D0CEB189C42F2
:10F6600003D980246402A44660441C0C09041B04D2
:10F67000090C20185D18824200D2DEE000D1D7E0EC
:10F68000161A029B9C465D1BAC459B415B42F61AD9
:10F69000B74200D106E149463000FEF7C9FB009BA6
:10F6A00004004343494630009846FEF747FC2E0CC1
:10F6B00009040E43B04509D9F619631EB74200D9B3
:10F6C000F3E0B04500D8F0E0023CF6194346F31AE7
:10F6D000494618000293FEF7ABFB009B060043432C
:10F6E000494602989846FEF729FC2D0409042D0C82
:10F6F0000D43A84509D9ED19731EAF4200D9D6E0D4
:10F70000A84500D8D3E0023EED1924042100434669
:10F710003143049E059A3000ED1A0B040C0C1B0CAF
:10F7200058436643534354439A19030C9B189E4213
:10F7300003D980225202944664441A0C00041B042C
:10F74000000C14191B18A54250D34DD001231943A6
:10F75000964A019B94466344002B00DCF3E64A077B
:10F7600009D00F220A40042A05D00A1D8A42894185
:10F7700049428B4411005A46D20108D55A468C4B57
:10F780001A4093468022D2009446019B6344894AE2
:10F79000934200DD5BE65A46C9085007084356020B
:10F7A000514601225B058146360B5B0D0A4055E64A
:10F7B00080231B031E4211D05A461A420ED15E46C8
:10F7C0001E433603360B2A0089467B4B46E6032B45
:10F7D00000D1E1E0012BBBD11A40BBE61E4336034A
:10F7E000360B4246744B39E6002BB1D07D194A1EC8
:10F7F000AF4252D91100A542A8D1039A9A42A5D18D
:10F80000A6E703003E00283B9E400023994654E6AD
:10F8100001F040F9203041E603005246283B9A406F
:10F820000021934677E6504601F034F920305EE639
:10F83000029B0026AB4200D323E7039E0299B44605
:10F8400061448846B045B6415B467642F619B21827
:10F85000013B0291974213D290424FD800D18EE0E3
:10F86000161A9B460DE7894500D28EE674084B4672
:10F87000F60735005B081D434B46DB0702938BE61A
:10F880009742EDD10399029CA142E5D93E1A9B46CD
:10F89000F7E69846CAE61E00A5E6AC423ED874D00C
:10F8A000110053E70121494252E71C000EE71E00F8
:10F8B0002BE71F2D3CDC20230A0058465B1B984099
:10F8C000EA4099400243481E81415E461143EE40A2
:10F8D0004B0709D00F230B40042B05D00B00191D3B
:10F8E00099429B415B42F61833023CD553460122B4
:10F8F00000211A40002601238946AFE502235B421E
:10F900009C46039CE344A446029B63449846A0455E
:10F91000B6417642F6190293B218B1E603988A1EF0
:10F9200041008142B6417642F619AD19039161E773
:10F930001F225242D31A5A46DA401300202D29D0F2
:10F9400040225846551BA8400143481E81410720CC
:10F950000B4318400026002809D00F2200261A4029
:10F960001900042ABBD10B0070077602360BDB08A6
:10F9700003439946012253461A4000236EE502993B
:10F980008D42BBD89B4600267BE603989842C5D3A0
:10F99000110032E70020D7E780265B4636031E437E
:10F9A0003603360B009A8946034B57E5FF030000E8
:10F9B000FFFFFFFEFE070000FF070000F0B55F46F7
:10F9C00056464D464446F0B41F035C00DB0F9A4692
:10F9D000194B0E034D00C90F8046360B6D0D8B463B
:10F9E00091463F0B640D9D4219D0134B9C421BD096
:10F9F0000123A54206D018003CBC90469946A24679
:10FA0000AB46F0BDBE42F6D1C845F4D1D34510D0C7
:10FA1000002DF0D1304303005A1E9341EBE7310033
:10FA200001230143E7D1E0E73A430123002AE2D171
:10FA3000DEE70023DFE7C046FF070000F0B55F46C2
:10FA4000444656464D46F0B41F033C0B2C4F0E0364
:10FA50004D00A3465C008446360B6D0DC90F9046E1
:10FA6000640DDB0FBD422BD0254FBC422ED0002DA4
:10FA70000ED130430700814678427841002C17D1DF
:10FA80005F463A4314D14B460020002B0AD006E0D3
:10FA9000002C02D15846024301D099421AD00123CA
:10FAA000484218433CBC90469946A246AB46F0BD3E
:10FAB0000028F2D058425841012240421043F1E759
:10FAC00037000743D0D002204042EBE75F461743A0
:10FAD000CDD0F8E7A542E2DC05DB5E45DFD808D0F3
:10FAE00000205E45DED2484248410123404218438F
:10FAF000D8E7C445D3D80020C445F4D3D2E7C046E4
:10FB0000FF070000F0B55F464D4644465646F0B448
:10FB10001C03240BA4462F4C0F034D005E00C90F9D
:10FB200080463F0B6D0D8B469146760DDB0FA5424F
:10FB300020D0284CA64222D0002D12D13843444276
:10FB40004441002E20D0002C0DD05C4263410124A2
:10FB50005B421C4320003CBC90469946A246AB4603
:10FB6000F0BD002E17D05B4519D05B465C420123E7
:10FB70001C43EFE7390002240143EBD1D9E761468A
:10FB800002241143E6D1D7E761460A43DBD10024C2
:10FB90000028DFD0E9E761460A43E4D1E5E7B54252
:10FBA00003DD01225C421443D4E7B542CDDB674557
:10FBB000DBD809D000246745CCD259464C4261417C
:10FBC000012449420C43C5E7C845CED80024C845A6
:10FBD000F3D3BFE7FF070000F0B55F4656464D463A
:10FBE0004446F0B40D0399464E002B0B87B0070036
:10FBF000924680469B46760DCC0F002E69D06D4B09
:10FC00009E4235D05B468022DD001204430F134331
:10FC10002B439B46C3009846674B00279C46002316
:10FC2000664401934A4615035000D20F53462D0BEC
:10FC3000400D914600D176E05E4A90426CD0802221
:10FC40005B0F120413435C4AED0094461D43534678
:10FC50000022DB00604449463618701C6140029067
:10FC600017430F2F00D9AFE05448BF00C759BF4614
:10FC70005B461F4300D088E000239B469846023332
:10FC800008270193CEE74946022A6AD0032A00D109
:10FC900009E2012A00D0BBE1114000220023002527
:10FCA0009046CCB200212D030A0D12052D0B1543F1
:10FCB000434A1B0515401D436D00E4076D082543AD
:10FCC0004046290007B03CBC90469946A246AB4648
:10FCD000F0BD034352D05B46002B00D18AE1584669
:10FCE00000F0D8FE03000B3B1C2B00DD7BE11D2246
:10FCF000D31A3A0001005D46DA4008398D401300FE
:10FD00008F402B439B46B8462E4B00279C46002332
:10FD100060444642019385E752462A432CD1002590
:10FD20000023022297E752462A4321D0002D00D11A
:10FD300054E1280000F0AEFE03000B3B1C2B00DD5D
:10FD400046E11D21CB1A51460200D9405346083ADC
:10FD5000954093400D431B4A944660444042002224
:10FD600079E7012400220C40124B0025904699E7C8
:10FD70000025002301226EE703226CE700239B4647
:10FD800098460133042701934CE703230C27019382
:10FD900048E700238025984600242D03054B81E782
:10FDA0005D464346019A6FE75D4643462100019A4E
:10FDB0006AE7C046FF07000001FCFFFF0C3A0200A3
:10FDC000FFFF0F80F30300004246120C91461A0C0D
:10FDD0009446424617044A461B041B0C5A4360468D
:10FDE00090464A4642431000039262461C003F0C74
:10FDF0007A437C4342440192220C9246019A524437
:10FE0000904506D98246802040028046C244504632
:10FE10000390100C049048462404240C1204121978
:10FE200005922A0C2D042D0C68432C00824648466E
:10FE30007C4350438146200C8046574357444744F7
:10FE4000BA4503D9802040028046C144380C3F04A3
:10FE5000B84648442404240C01900498A04440442B
:10FE600004905846000C814658460404200C8246F3
:10FE7000070048465F434C46434360466043644640
:10FE8000834650464443380C8446E4186444A342F5
:10FE900003D980235B029C46E34448463F04230C7D
:10FEA0003F0C2404E419574668436F4384464D468B
:10FEB000504655434243380C814662444A445B44B1
:10FEC000944503D9802040028446654403983F044A
:10FED000834604983F0C8446E344C3458041404236
:10FEE0008246100484460198674484466744A344CC
:10FEF000BC46A345A4419946D44464428742BF41CD
:10FF0000D4458041E144A04699459B417F4240420F
:10FF1000C8440743120CBA18A045A4415F423B00F5
:10FF200064422343D71843467D19DB0D6D021D4300
:10FF30005B465A02059B1A43531E9A415B46DB0DF2
:10FF40001A4343465B021343EA0107D501225C08CA
:10FF500013402343EA07029E13436D08574AB21821
:10FF6000002A4BDD580709D00F201840042805D07F
:10FF7000181D98429B415B42ED180300E80104D52F
:10FF80004F4A15408022D200B2184E48824200DD0E
:10FF9000E7E60124DB08680718436D025305804635
:10FFA0002D0B5B0D0C407DE6802259461203114259
:10FFB00008D0154206D115432D0398462D0B4C460B
:10FFC000414B6FE65D4615432D032D0B3E4B69E615
:10FFD00003005546283B9D400023BCE6504600F0F8
:10FFE00059FD2030A8E60300283B9F400023BB4674
:10FFF000984689E600F04EFD203073E60124A61AEB
:020000022000DC
:10000000382E07DD00220C4000230025904649E6EB
:10001000029EA3E71F2E20DC20222C001800921B3A
:10002000F040944093400443581E83411C43F540E4
:10003000630709D00F232340042B05D023001C1D88
:100040009C4292415242AD182B021FD5012400223E
:100050000C4001230025904624E61F202C0040423E
:10006000821AD440202E1CD04022961BB5402B4330
:10007000581E83410720234318400025002809D03B
:100080000F2200251A401C00042AD8D1230068073B
:100090006D022D0B0124DB08034398460C4000231E
:1000A00000E60025E3E780220124120315432D0317
:1000B00098462D0B0C40044BF4E5C046FF030000AE
:1000C000FFFFFFFEFE070000FF070000F0B55746E8
:1000D0004E464546E0B40E001100F20F9246C500B0
:1000E000420F180337037400400A4E0F7F0A304353
:1000F000CF4E17435A00640D520DDB0FC900B242B8
:1001000000D1E5E001267340A61AB446534500D15C
:10011000AFE0002E00DC0DE1002A3AD103000B43D2
:1001200000D0E4E06B0709D00F232B40042B05D04F
:100130002B1DAB42AD416D427F191D003B0200D427
:1001400088E0BB4B01349C4200D110E13A00B94B2E
:1001500051461A4001235007ED0852026405054339
:10016000120B640D0B400021280012030D0D120B21
:1001700064052D0515436208AF4CDB072C40144382
:10018000640064081C4321001CBC90469946A246AA
:10019000F0BDA74B9C42C5D080231B041843634687
:1001A000382B00DDFDE01F2B00DD30E1624620230F
:1001B0009B1A02009A40664690460A009940F24017
:1001C00046464B1E99413243114363460200DA40D2
:1001D000691A8D429B410D00BA1A5B42D71A3B0245
:1001E00035D57A02530A98464346002B00D1C4E025
:1001F000404600F04FFC0300083B1F2B00DDC5E02C
:1002000020222900D21A4746D1409F400A009D4033
:100210003A439C4200DDC0E01C1B631C1F2B00DD29
:10022000E4E0202114002800C91AD8408C408D40F9
:100230000443DA40681E854117002543002471E716
:10024000424663461A4300D14CE2674645466B0777
:1002500000D069E7012351467807ED08FA080B4002
:10026000054373498C4238D012036405120B640DA8
:1002700079E7002E00DC9AE0002A47D06C4A9442CD
:1002800000D14FE78022120410436246382A00DC76
:1002900008E10143481E81410022C9B24919D2191F
:1002A000A942BF410D007F42BF183A0200D442E18B
:1002B0005F4A0134944200D14EE101205D4A690851
:1002C0003A4028400843D507054357089A4629E78E
:1002D00006000E4300D017E714E72900114300D1B0
:1002E000F9E1802109030A431203120B3BE70123C2
:1002F0005B429846C4446346002B72D1691A8D4212
:100300009B413F1A5B42FF1A0D0068E702000A4357
:1003100000D107E7012252429046C4446246002AB7
:1003200000D0E6E06918A942B6413F187642F719B5
:100330000D00BAE7002E00D080E0621C5205520D7D
:10034000012A00DCF9E06A1A91464D45B6413A1A95
:100350007642921B9046120200D499E04D1BA942AE
:100360008941C71B49427A1A90469A463CE7524651
:100370000123002513400022F5E6280000F08AFB47
:1003800020300300083B1F2B00DC39E72A00283807
:10039000824000259C4200DC3EE7264FE41A1740CD
:1003A000C0E60143481E81410022C9B210E7002E79
:1003B00000D0F1E0621C94465205520D012A00DC87
:1003C000A0E01B4A944500D1C5E06918A9429241BA
:1003D0003F185242D2194908D5070D4357086446C1
:1003E000A0E6134B9C4200D0D9E69BE611001F3CCF
:1003F000E1400C00202B00D180E04021CB1A9A4034
:1004000015436A1E95410027254300241FE76346D4
:100410000200203BDA406346202B71D04023664621
:100420009B1B98400143481E814111430022CFE6A7
:10043000FF070000FFFF7FFFFFFF0F80002C48D069
:10044000CA4CA24200D1A2E07442A14680242404F6
:1004500027434C46382C00DDDBE01F2C00DD44E157
:100460004E462024A41B3E00A640A246B0464C4661
:100470002E00E640B4464646644626435446A54010
:100480006C1EA54134002C434D46EF400D1B28E067
:100490004A4643464D461A4300D0A5E600230024B1
:1004A0000025DEE61F2A5ADC66462022921B060043
:1004B00096409146B04662460E00D64042461643EC
:1004C0004A4691404A1E9141020060463143C24073
:1004D000E4E63C002C435AD0F443A146002C52D110
:1004E0004D1BA9428941C71B49427F1A14009A46F5
:1004F00075E69E4A944200D0C7E613E600227FE7E5
:1005000000208FE7002C00D0C8E03B002B4300D137
:100510000FE103000B4300D104E66918A9429B4197
:100520003F185B42DF193B0200D41AE1904B0D00EB
:100530001F406446F6E59A4689E63A002A43002CB5
:100540005CD1002A75D102000A4300D1CAE007003D
:100550000D009A46E6E564460022002581E66246E3
:100560000600203AD6406246B046202A00D1B7E0C5
:1005700040226646921B904001434246481E8141FC
:10058000114300228AE6794CA24200D061E70700BD
:100590000D0014009A46C5E5002C41D13C002C43C7
:1005A00078D0F443A146002C20D0704CA24271D0E8
:1005B0004C46382C00DDB2E01F2C00DDBCE02026CC
:1005C000341BA2463C005646B4404E46A0462C0082
:1005D000F440A446444666463443A4465446A540E7
:1005E00064466E1EB54125434C46E7406D188D426A
:1005F00089413F184942CF19140056E6002A2FD1ED
:1006000002000A4300D184E007000D009A46574CCF
:1006100088E53D436F1EBD41ECB200270D1B60E72E
:10062000524CA24236D0744280263604A14637434B
:10063000BEE702000A4300D174E56A1A90464545B8
:10064000B6413A1A7642921B9446120200D4F7E55C
:100650004D1BA9428941C71B49427F1A9A4661E551
:1006600002000A433AD0ED087C072C438025FA08A3
:100670002D032A4208D0C7082F4205D145072C0078
:100680003A009A46C9080C43670FD200E5001743A9
:10069000364C47E507000D00140043E53A002A43B5
:1006A00043D002000A4319D0ED087C072C43802573
:1006B000FA082D032A4207D0C6082E4204D1470764
:1006C0003C003200C9080C43D700620FE500174315
:1006D0009A46264C26E50022002544E5234C21E5D8
:1006E000002049E700230025BBE54C463E00203CA6
:1006F000E6404C46B446202C31D040244E46A61B42
:10070000B7403D436C1EA54164462C4300270D1B9A
:10071000E7E6802200231203144C0025A1E53D43A7
:100720006F1EBD410027EDB260E707000D000F4CC2
:10073000F8E407000D00F5E44E463C00203EF4408E
:10074000A0464C46202C0ED040244E46A41BA74069
:100750003D436F1EBD4144460027254346E7002721
:10076000CFE70D0073E50027F2E7C046FF07000062
:10077000FFFF7FFF0B0330B5134D1A0B4B005B0DD2
:10078000C90F0024AB4211DD104CA34210DC8024C1
:10079000640322430E4CE41A1F2C0CDD0D48C31ACF
:1007A000DA4013005C42002900D11C00200030BD5B
:1007B000094BCC18FAE7E040084CA44663449A4041
:1007C00013000343EEE7C046FE0300001D040000D3
:1007D0003304000013040000FFFFFF7FEDFBFFFF69
:1007E00070B5002830D0C317C4185C40C50F200076
:1007F00000F050F9174B184A1B1AD21A1F2A18DD9D
:10080000164AD21A9440002224035B05240B5B0D88
:100810000021100024030A0D1205240B1443104A72
:100820001B0514401C436400ED0764082C432100A1
:1008300070BD210091400A000B21081AC4405B05DD
:100840002403240B5B0DE3E7002500230024002292
:10085000DEE7C0461E04000033040000130400005D
:10086000FFFF0F8070B5051E28D000F013F9154B5F
:10087000154A1B1AD21A1F2A16DD2C00134A00250E
:10088000D21A94405A052403240B520D002124034C
:100890000B0D240B1B0523430D4C12052340134362
:1008A0005B002800590870BD0B212C00081AC440B9
:1008B000954024035A05240B520DE7E7002200243B
:1008C000E4E7C0461E0400003304000013040000E7
:1008D000FFFF0F804200120E511C4302C9B270B5D7
:1008E0005D0AC40F012915DDE02189008C466D07E2
:1008F0001B0B6244002128000D0D2D052B431C4DC0
:1009000052052B40520813435B00E4075B08234366
:10091000190070BD002A15D1002D1FD0280000F04D
:10092000B9F80A281DDC0B232A001B1ADA40130031
:100930000200153295400F4A1B03121A52051B0B79
:10094000520DD7E7002D06D080221B0B1203134354
:100950006D07094ACEE7084A0023CBE700220023AF
:10096000C8E703000B3B9D402B000025E3E7C04692
:10097000FFFF0F8089030000FF0700004B0070B5E8
:100980005E0D0C03751C640A420F6D052243C90FEE
:10099000C4006D0D012D2ADD3B4BF318FE2B1ADC34
:1009A000002B42DD8001451EA841D2001043620F9A
:1009B0000243500704D00F201040042800D0043216
:1009C0008020C004104021D00133FF2B03D09201BE
:1009D000520ADBB201E0FF2300225202520ADB0579
:1009E00013435B00C9075B080B43180070BD002E62
:1009F00007D01443EFD08020D20080040243FF23AD
:100A0000D7E722430023002A03D00522D208FF2B78
:100A100003D05202520ADBB2DFE7002A32D0802034
:100A2000C00302435202520AD7E71800173014DB02
:100A30008020000402431E20C01A1F280FDC25005E
:100A4000124BF3189D406E1EB5419A402B00134384
:100A50002200C2401A430023ABE70023D5E702255A
:100A60006D42EB1A1500DD40202809D0084BF31821
:100A70009A401443621E9441220000232A4398E7BF
:100A80000022F6E70022A8E780FCFFFF82FCFFFFC0
:100A9000A2FCFFFF1C2101231B04984201D3000C80
:100AA00010391B0A984201D3000A08391B099842E1
:100AB00001D30009043902A2105C40187047C046F7
:100AC0000403020201010101000000000000000017
